{
  "contractName": "Escrow",
  "abi": [
    {
      "inputs": [],
      "stateMutability": "nonpayable",
      "type": "constructor"
    },
    {
      "anonymous": false,
      "inputs": [
        {
          "indexed": false,
          "internalType": "uint256",
          "name": "newDeadline",
          "type": "uint256"
        }
      ],
      "name": "DeadlineExtended",
      "type": "event"
    },
    {
      "anonymous": false,
      "inputs": [
        {
          "indexed": false,
          "internalType": "string",
          "name": "reason",
          "type": "string"
        }
      ],
      "name": "DisputeInitiated",
      "type": "event"
    },
    {
      "anonymous": false,
      "inputs": [
        {
          "indexed": false,
          "internalType": "bool",
          "name": "success",
          "type": "bool"
        }
      ],
      "name": "DisputeResolved",
      "type": "event"
    },
    {
      "anonymous": false,
      "inputs": [],
      "name": "EscrowCancelled",
      "type": "event"
    },
    {
      "anonymous": false,
      "inputs": [],
      "name": "EscrowCompleted",
      "type": "event"
    },
    {
      "anonymous": false,
      "inputs": [
        {
          "indexed": false,
          "internalType": "address",
          "name": "buyer",
          "type": "address"
        },
        {
          "indexed": false,
          "internalType": "address",
          "name": "seller",
          "type": "address"
        },
        {
          "indexed": false,
          "internalType": "uint256",
          "name": "amount",
          "type": "uint256"
        }
      ],
      "name": "EscrowInitiated",
      "type": "event"
    },
    {
      "anonymous": false,
      "inputs": [],
      "name": "FundsClaimed",
      "type": "event"
    },
    {
      "anonymous": false,
      "inputs": [
        {
          "indexed": false,
          "internalType": "uint256",
          "name": "amount",
          "type": "uint256"
        }
      ],
      "name": "FundsDeposited",
      "type": "event"
    },
    {
      "stateMutability": "nonpayable",
      "type": "fallback"
    },
    {
      "inputs": [],
      "name": "amount",
      "outputs": [
        {
          "internalType": "uint256",
          "name": "",
          "type": "uint256"
        }
      ],
      "stateMutability": "view",
      "type": "function",
      "constant": true
    },
    {
      "inputs": [
        {
          "internalType": "address",
          "name": "",
          "type": "address"
        }
      ],
      "name": "approved",
      "outputs": [
        {
          "internalType": "bool",
          "name": "",
          "type": "bool"
        }
      ],
      "stateMutability": "view",
      "type": "function",
      "constant": true
    },
    {
      "inputs": [
        {
          "internalType": "uint256",
          "name": "",
          "type": "uint256"
        }
      ],
      "name": "approvers",
      "outputs": [
        {
          "internalType": "address",
          "name": "",
          "type": "address"
        }
      ],
      "stateMutability": "view",
      "type": "function",
      "constant": true
    },
    {
      "inputs": [],
      "name": "arbitrator",
      "outputs": [
        {
          "internalType": "address payable",
          "name": "",
          "type": "address"
        }
      ],
      "stateMutability": "view",
      "type": "function",
      "constant": true
    },
    {
      "inputs": [],
      "name": "buyer",
      "outputs": [
        {
          "internalType": "address payable",
          "name": "",
          "type": "address"
        }
      ],
      "stateMutability": "view",
      "type": "function",
      "constant": true
    },
    {
      "inputs": [],
      "name": "deadline",
      "outputs": [
        {
          "internalType": "uint256",
          "name": "",
          "type": "uint256"
        }
      ],
      "stateMutability": "view",
      "type": "function",
      "constant": true
    },
    {
      "inputs": [],
      "name": "isActive",
      "outputs": [
        {
          "internalType": "bool",
          "name": "",
          "type": "bool"
        }
      ],
      "stateMutability": "view",
      "type": "function",
      "constant": true
    },
    {
      "inputs": [],
      "name": "isClaimed",
      "outputs": [
        {
          "internalType": "bool",
          "name": "",
          "type": "bool"
        }
      ],
      "stateMutability": "view",
      "type": "function",
      "constant": true
    },
    {
      "inputs": [],
      "name": "isDisputed",
      "outputs": [
        {
          "internalType": "bool",
          "name": "",
          "type": "bool"
        }
      ],
      "stateMutability": "view",
      "type": "function",
      "constant": true
    },
    {
      "inputs": [],
      "name": "owner",
      "outputs": [
        {
          "internalType": "address",
          "name": "",
          "type": "address"
        }
      ],
      "stateMutability": "view",
      "type": "function",
      "constant": true
    },
    {
      "inputs": [],
      "name": "seller",
      "outputs": [
        {
          "internalType": "address payable",
          "name": "",
          "type": "address"
        }
      ],
      "stateMutability": "view",
      "type": "function",
      "constant": true
    },
    {
      "inputs": [
        {
          "internalType": "address payable",
          "name": "_buyer",
          "type": "address"
        },
        {
          "internalType": "address payable",
          "name": "_seller",
          "type": "address"
        },
        {
          "internalType": "address payable",
          "name": "_arbitrator",
          "type": "address"
        },
        {
          "internalType": "uint256",
          "name": "_amount",
          "type": "uint256"
        }
      ],
      "name": "initiateEscrow",
      "outputs": [],
      "stateMutability": "nonpayable",
      "type": "function"
    },
    {
      "inputs": [],
      "name": "resetEscrow",
      "outputs": [],
      "stateMutability": "nonpayable",
      "type": "function"
    },
    {
      "inputs": [],
      "name": "depositFunds",
      "outputs": [],
      "stateMutability": "payable",
      "type": "function",
      "payable": true
    },
    {
      "inputs": [],
      "name": "claimFunds",
      "outputs": [],
      "stateMutability": "nonpayable",
      "type": "function"
    },
    {
      "inputs": [
        {
          "internalType": "address",
          "name": "_sender",
          "type": "address"
        }
      ],
      "name": "isApproved",
      "outputs": [
        {
          "internalType": "bool",
          "name": "",
          "type": "bool"
        }
      ],
      "stateMutability": "view",
      "type": "function",
      "constant": true
    },
    {
      "inputs": [
        {
          "internalType": "uint256",
          "name": "newDeadline",
          "type": "uint256"
        }
      ],
      "name": "extendDeadline",
      "outputs": [],
      "stateMutability": "nonpayable",
      "type": "function"
    },
    {
      "inputs": [],
      "name": "initiateDispute",
      "outputs": [],
      "stateMutability": "nonpayable",
      "type": "function"
    },
    {
      "inputs": [
        {
          "internalType": "bool",
          "name": "buyerWins",
          "type": "bool"
        }
      ],
      "name": "resolveDispute",
      "outputs": [],
      "stateMutability": "nonpayable",
      "type": "function"
    },
    {
      "inputs": [],
      "name": "cancelEscrow",
      "outputs": [],
      "stateMutability": "nonpayable",
      "type": "function"
    }
  ],
  "bytecode": "0x608060405234801561001057600080fd5b506120e6806100206000396000f3fe6080604052600436106101235760003560e01c80637150d8ae116100a0578063ac30777311610064578063ac307773146103d5578063d3650fb8146103ec578063d45b000714610429578063d8b964e614610440578063e2c41dbc1461047d57610124565b80637150d8ae1461031457806389e1e82a1461033f5780638da5cb5b14610368578063a6f529f014610393578063aa8c217c146103aa57610124565b8063389b7533116100e7578063389b7533146102415780634acc296f1461026a57806357c9ca1414610281578063673448dd146102ac5780636cc6cde1146102e957610124565b80630335729e1461016c57806308551a531461019757806322f3e2d4146101c257806329dcb0cf146101ed5780632a648c341461021857610124565b5b34801561013057600080fd5b506040517f08c379a000000000000000000000000000000000000000000000000000000000815260040161016390611517565b60405180910390fd5b34801561017857600080fd5b50610181610487565b60405161018e9190611552565b60405180910390f35b3480156101a357600080fd5b506101ac61049a565b6040516101b991906115ae565b60405180910390f35b3480156101ce57600080fd5b506101d76104c0565b6040516101e49190611552565b60405180910390f35b3480156101f957600080fd5b506102026104d3565b60405161020f91906115e2565b60405180910390f35b34801561022457600080fd5b5061023f600480360381019061023a919061165a565b6104d9565b005b34801561024d57600080fd5b50610268600480360381019061026391906116c1565b61064e565b005b34801561027657600080fd5b5061027f610763565b005b34801561028d57600080fd5b506102966108b6565b6040516102a39190611552565b60405180910390f35b3480156102b857600080fd5b506102d360048036038101906102ce919061172c565b6108c9565b6040516102e09190611552565b60405180910390f35b3480156102f557600080fd5b506102fe610a04565b60405161030b91906115ae565b60405180910390f35b34801561032057600080fd5b50610329610a2a565b60405161033691906115ae565b60405180910390f35b34801561034b57600080fd5b5061036660048036038101906103619190611785565b610a4e565b005b34801561037457600080fd5b5061037d610c7d565b60405161038a91906117c1565b60405180910390f35b34801561039f57600080fd5b506103a8610ca3565b005b3480156103b657600080fd5b506103bf610e9f565b6040516103cc91906115e2565b60405180910390f35b3480156103e157600080fd5b506103ea610ea5565b005b3480156103f857600080fd5b50610413600480360381019061040e91906116c1565b611116565b60405161042091906117c1565b60405180910390f35b34801561043557600080fd5b5061043e611155565b005b34801561044c57600080fd5b506104676004803603810190610462919061172c565b61133f565b6040516104749190611552565b60405180910390f35b61048561135f565b005b600860149054906101000a900460ff1681565b600160009054906101000a900473ffffffffffffffffffffffffffffffffffffffff1681565b600460019054906101000a900460ff1681565b60055481565b600460019054906101000a900460ff1615610529576040517f08c379a000000000000000000000000000000000000000000000000000000000815260040161052090611828565b60405180910390fd5b836000806101000a81548173ffffffffffffffffffffffffffffffffffffffff021916908373ffffffffffffffffffffffffffffffffffffffff16021790555082600160006101000a81548173ffffffffffffffffffffffffffffffffffffffff021916908373ffffffffffffffffffffffffffffffffffffffff16021790555081600260006101000a81548173ffffffffffffffffffffffffffffffffffffffff021916908373ffffffffffffffffffffffffffffffffffffffff160217905550806003819055506001600460016101000a81548160ff0219169083151502179055507f63f9a48333323d923317f82cda89a0c64af3bdee4899b2598b36c0c25d5c9d17848483604051610640939291906118a7565b60405180910390a150505050565b600860009054906101000a900473ffffffffffffffffffffffffffffffffffffffff1673ffffffffffffffffffffffffffffffffffffffff163373ffffffffffffffffffffffffffffffffffffffff16146106de576040517f08c379a00000000000000000000000000000000000000000000000000000000081526004016106d590611950565b60405180910390fd5b6005548111610722576040517f08c379a0000000000000000000000000000000000000000000000000000000008152600401610719906119e2565b60405180910390fd5b806005819055507fc7f2746aefc0d137a95df385581a90d8b73240b3e6724f8ecb10b58e88f0fb8b8160405161075891906115e2565b60405180910390a150565b60008054906101000a900473ffffffffffffffffffffffffffffffffffffffff1673ffffffffffffffffffffffffffffffffffffffff163373ffffffffffffffffffffffffffffffffffffffff16148061080a5750600160009054906101000a900473ffffffffffffffffffffffffffffffffffffffff1673ffffffffffffffffffffffffffffffffffffffff163373ffffffffffffffffffffffffffffffffffffffff16145b610849576040517f08c379a000000000000000000000000000000000000000000000000000000000815260040161084090611a4e565b60405180910390fd5b600460009054906101000a900460ff1615610899576040517f08c379a000000000000000000000000000000000000000000000000000000000815260040161089090611ae0565b60405180910390fd5b6001600860146101000a81548160ff021916908315150217905550565b600460009054906101000a900460ff1681565b6000806000905060005b6006805490508110156109925760076000600683815481106108f8576108f7611b00565b5b9060005260206000200160009054906101000a900473ffffffffffffffffffffffffffffffffffffffff1673ffffffffffffffffffffffffffffffffffffffff1673ffffffffffffffffffffffffffffffffffffffff16815260200190815260200160002060009054906101000a900460ff161561097f57818061097b90611b5e565b9250505b808061098a90611b5e565b9150506108d3565b5060026006805490506109a59190611bd5565b811180156109fc5750600760008473ffffffffffffffffffffffffffffffffffffffff1673ffffffffffffffffffffffffffffffffffffffff16815260200190815260200160002060009054906101000a900460ff165b915050919050565b600260009054906101000a900473ffffffffffffffffffffffffffffffffffffffff1681565b60008054906101000a900473ffffffffffffffffffffffffffffffffffffffff1681565b600260009054906101000a900473ffffffffffffffffffffffffffffffffffffffff1673ffffffffffffffffffffffffffffffffffffffff163373ffffffffffffffffffffffffffffffffffffffff1614610ade576040517f08c379a0000000000000000000000000000000000000000000000000000000008152600401610ad590611c52565b60405180910390fd5b600860149054906101000a900460ff16610b2d576040517f08c379a0000000000000000000000000000000000000000000000000000000008152600401610b2490611cbe565b60405180910390fd5b8015610ba15760008054906101000a900473ffffffffffffffffffffffffffffffffffffffff1673ffffffffffffffffffffffffffffffffffffffff166108fc6003549081150290604051600060405180830381858888f19350505050158015610b9b573d6000803e3d6000fd5b50610c0d565b600160009054906101000a900473ffffffffffffffffffffffffffffffffffffffff1673ffffffffffffffffffffffffffffffffffffffff166108fc6003549081150290604051600060405180830381858888f19350505050158015610c0b573d6000803e3d6000fd5b505b6001600460006101000a81548160ff0219169083151502179055506000600860146101000a81548160ff0219169083151502179055507f8015c5005d9ad5d85ca80d3f894f08e0159277704c54166e5cff108800fa80cd81604051610c729190611552565b60405180910390a150565b600860009054906101000a900473ffffffffffffffffffffffffffffffffffffffff1681565b60008054906101000a900473ffffffffffffffffffffffffffffffffffffffff1673ffffffffffffffffffffffffffffffffffffffff163373ffffffffffffffffffffffffffffffffffffffff161480610d4a5750600160009054906101000a900473ffffffffffffffffffffffffffffffffffffffff1673ffffffffffffffffffffffffffffffffffffffff163373ffffffffffffffffffffffffffffffffffffffff16145b610d89576040517f08c379a0000000000000000000000000000000000000000000000000000000008152600401610d8090611d2a565b60405180910390fd5b60008060006101000a81548173ffffffffffffffffffffffffffffffffffffffff021916908373ffffffffffffffffffffffffffffffffffffffff1602179055506000600160006101000a81548173ffffffffffffffffffffffffffffffffffffffff021916908373ffffffffffffffffffffffffffffffffffffffff1602179055506000600260006101000a81548173ffffffffffffffffffffffffffffffffffffffff021916908373ffffffffffffffffffffffffffffffffffffffff16021790555060006003819055506000600460016101000a81548160ff0219169083151502179055507f8726cb855b6e2f06382a782d2b5c208d25a81aa30625c042c9671aa5d0d4db3760405160405180910390a1565b60035481565b600160009054906101000a900473ffffffffffffffffffffffffffffffffffffffff1673ffffffffffffffffffffffffffffffffffffffff163373ffffffffffffffffffffffffffffffffffffffff1614610f35576040517f08c379a0000000000000000000000000000000000000000000000000000000008152600401610f2c90611dbc565b60405180910390fd5b600860149054906101000a900460ff1615610f85576040517f08c379a0000000000000000000000000000000000000000000000000000000008152600401610f7c90611e4e565b60405180910390fd5b600460009054906101000a900460ff1615610fd5576040517f08c379a0000000000000000000000000000000000000000000000000000000008152600401610fcc90611eba565b60405180910390fd5b60055442111561101a576040517f08c379a000000000000000000000000000000000000000000000000000000000815260040161101190611f26565b60405180910390fd5b611023336108c9565b611062576040517f08c379a000000000000000000000000000000000000000000000000000000000815260040161105990611f92565b60405180910390fd5b600160009054906101000a900473ffffffffffffffffffffffffffffffffffffffff1673ffffffffffffffffffffffffffffffffffffffff166108fc6003549081150290604051600060405180830381858888f193505050501580156110cc573d6000803e3d6000fd5b506001600460006101000a81548160ff0219169083151502179055507f9903f6b78be7ce5ad3daa969da14b8178b87ca380422563a0c2101d351e0005d60405160405180910390a1565b6006818154811061112657600080fd5b906000526020600020016000915054906101000a900473ffffffffffffffffffffffffffffffffffffffff1681565b600860009054906101000a900473ffffffffffffffffffffffffffffffffffffffff1673ffffffffffffffffffffffffffffffffffffffff163373ffffffffffffffffffffffffffffffffffffffff16146111e5576040517f08c379a00000000000000000000000000000000000000000000000000000000081526004016111dc90611950565b60405180910390fd5b600860149054906101000a900460ff1615611235576040517f08c379a000000000000000000000000000000000000000000000000000000000815260040161122c90611e4e565b60405180910390fd5b600460009054906101000a900460ff1615611285576040517f08c379a000000000000000000000000000000000000000000000000000000000815260040161127c90611eba565b60405180910390fd5b60004711156112f65760008054906101000a900473ffffffffffffffffffffffffffffffffffffffff1673ffffffffffffffffffffffffffffffffffffffff166108fc479081150290604051600060405180830381858888f193505050501580156112f4573d6000803e3d6000fd5b505b6001600460006101000a81548160ff0219169083151502179055507f6e3be9294e58d10b9c8053cfd5e09871b67e442fe394d6b0870d336b9df984a960405160405180910390a1565b60076020528060005260406000206000915054906101000a900460ff1681565b60008054906101000a900473ffffffffffffffffffffffffffffffffffffffff1673ffffffffffffffffffffffffffffffffffffffff163373ffffffffffffffffffffffffffffffffffffffff16146113ed576040517f08c379a00000000000000000000000000000000000000000000000000000000081526004016113e490612024565b60405180910390fd5b600860149054906101000a900460ff161561143d576040517f08c379a000000000000000000000000000000000000000000000000000000000815260040161143490611e4e565b60405180910390fd5b6003543414611481576040517f08c379a000000000000000000000000000000000000000000000000000000000815260040161147890612090565b60405180910390fd5b7f7cb5d45c1071f219bd2da1ea101758715bd52f23f2a707f2d9a0387dea18d906346040516114b091906115e2565b60405180910390a1565b600082825260208201905092915050565b7f446972656374207472616e73666572206e6f7420616c6c6f7765640000000000600082015250565b6000611501601b836114ba565b915061150c826114cb565b602082019050919050565b60006020820190508181036000830152611530816114f4565b9050919050565b60008115159050919050565b61154c81611537565b82525050565b60006020820190506115676000830184611543565b92915050565b600073ffffffffffffffffffffffffffffffffffffffff82169050919050565b60006115988261156d565b9050919050565b6115a88161158d565b82525050565b60006020820190506115c3600083018461159f565b92915050565b6000819050919050565b6115dc816115c9565b82525050565b60006020820190506115f760008301846115d3565b92915050565b600080fd5b61160b8161158d565b811461161657600080fd5b50565b60008135905061162881611602565b92915050565b611637816115c9565b811461164257600080fd5b50565b6000813590506116548161162e565b92915050565b60008060008060808587031215611674576116736115fd565b5b600061168287828801611619565b945050602061169387828801611619565b93505060406116a487828801611619565b92505060606116b587828801611645565b91505092959194509250565b6000602082840312156116d7576116d66115fd565b5b60006116e584828501611645565b91505092915050565b60006116f98261156d565b9050919050565b611709816116ee565b811461171457600080fd5b50565b60008135905061172681611700565b92915050565b600060208284031215611742576117416115fd565b5b600061175084828501611717565b91505092915050565b61176281611537565b811461176d57600080fd5b50565b60008135905061177f81611759565b92915050565b60006020828403121561179b5761179a6115fd565b5b60006117a984828501611770565b91505092915050565b6117bb816116ee565b82525050565b60006020820190506117d660008301846117b2565b92915050565b7f416e20657363726f7720697320616c7265616479206163746976650000000000600082015250565b6000611812601b836114ba565b915061181d826117dc565b602082019050919050565b6000602082019050818103600083015261184181611805565b9050919050565b6000819050919050565b600061186d6118686118638461156d565b611848565b61156d565b9050919050565b600061187f82611852565b9050919050565b600061189182611874565b9050919050565b6118a181611886565b82525050565b60006060820190506118bc6000830186611898565b6118c96020830185611898565b6118d660408301846115d3565b949350505050565b7f4f6e6c79206f776e65722063616e20706572666f726d2074686973206163746960008201527f6f6e000000000000000000000000000000000000000000000000000000000000602082015250565b600061193a6022836114ba565b9150611945826118de565b604082019050919050565b600060208201905081810360008301526119698161192d565b9050919050565b7f4e657720646561646c696e65206d757374206265206c61746572207468616e2060008201527f63757272656e7400000000000000000000000000000000000000000000000000602082015250565b60006119cc6027836114ba565b91506119d782611970565b604082019050919050565b600060208201905081810360008301526119fb816119bf565b9050919050565b7f4e6f742061207061727469636970616e74000000000000000000000000000000600082015250565b6000611a386011836114ba565b9150611a4382611a02565b602082019050919050565b60006020820190508181036000830152611a6781611a2b565b9050919050565b7f43616e6e6f7420646973707574652061667465722066756e647320617265206360008201527f6c61696d65640000000000000000000000000000000000000000000000000000602082015250565b6000611aca6026836114ba565b9150611ad582611a6e565b604082019050919050565b60006020820190508181036000830152611af981611abd565b9050919050565b7f4e487b7100000000000000000000000000000000000000000000000000000000600052603260045260246000fd5b7f4e487b7100000000000000000000000000000000000000000000000000000000600052601160045260246000fd5b6000611b69826115c9565b91507fffffffffffffffffffffffffffffffffffffffffffffffffffffffffffffffff8203611b9b57611b9a611b2f565b5b600182019050919050565b7f4e487b7100000000000000000000000000000000000000000000000000000000600052601260045260246000fd5b6000611be0826115c9565b9150611beb836115c9565b925082611bfb57611bfa611ba6565b5b828204905092915050565b7f4e6f7420616e2061726269747261746f72000000000000000000000000000000600082015250565b6000611c3c6011836114ba565b9150611c4782611c06565b602082019050919050565b60006020820190508181036000830152611c6b81611c2f565b9050919050565b7f4e6f206469737075746520746f207265736f6c76650000000000000000000000600082015250565b6000611ca86015836114ba565b9150611cb382611c72565b602082019050919050565b60006020820190508181036000830152611cd781611c9b565b9050919050565b7f4f6e6c79207061727469636970616e742063616e207265736574000000000000600082015250565b6000611d14601a836114ba565b9150611d1f82611cde565b602082019050919050565b60006020820190508181036000830152611d4381611d07565b9050919050565b7f4f6e6c792073656c6c65722063616e20706572666f726d20746869732061637460008201527f696f6e0000000000000000000000000000000000000000000000000000000000602082015250565b6000611da66023836114ba565b9150611db182611d4a565b604082019050919050565b60006020820190508181036000830152611dd581611d99565b9050919050565b7f416374696f6e20626c6f636b65642064756520746f206f6e676f696e6720646960008201527f7370757465000000000000000000000000000000000000000000000000000000602082015250565b6000611e386025836114ba565b9150611e4382611ddc565b604082019050919050565b60006020820190508181036000830152611e6781611e2b565b9050919050565b7f46756e647320616c726561647920636c61696d65640000000000000000000000600082015250565b6000611ea46015836114ba565b9150611eaf82611e6e565b602082019050919050565b60006020820190508181036000830152611ed381611e97565b9050919050565b7f446561646c696e65206578636565646564000000000000000000000000000000600082015250565b6000611f106011836114ba565b9150611f1b82611eda565b602082019050919050565b60006020820190508181036000830152611f3f81611f03565b9050919050565b7f4d756c74692d73696720617070726f76616c2072657175697265640000000000600082015250565b6000611f7c601b836114ba565b9150611f8782611f46565b602082019050919050565b60006020820190508181036000830152611fab81611f6f565b9050919050565b7f4f6e6c792062757965722063616e20706572666f726d2074686973206163746960008201527f6f6e000000000000000000000000000000000000000000000000000000000000602082015250565b600061200e6022836114ba565b915061201982611fb2565b604082019050919050565b6000602082019050818103600083015261203d81612001565b9050919050565b7f496e636f7272656374206465706f73697420616d6f756e740000000000000000600082015250565b600061207a6018836114ba565b915061208582612044565b602082019050919050565b600060208201905081810360008301526120a98161206d565b905091905056fea2646970667358221220721fb0de9f2245c24950fbcf231cd36347747d735997d9a4428b8d024b76d69064736f6c634300080d0033",
  "immutableReferences": {},
  "source": "// SPDX-License-Identifier: MIT\r\npragma solidity ^0.8.0;\r\n\r\ncontract Escrow {\r\n    // State variables\r\n    address payable public buyer;\r\n    address payable public seller;\r\n\taddress payable public arbitrator; \r\n    uint256 public amount;\r\n    bool public isClaimed;\r\n\tbool public isActive;\r\n    uint256 public deadline; // Deadline for claiming funds\r\n    address[] public approvers; // Addresses required for multi-sig approval\r\n    mapping(address => bool) public approved;\r\n    address public owner; // Contract owner\r\n    bool public isDisputed; // Indicates if there's an ongoing dispute\r\n\r\n    event EscrowInitiated(address buyer, address seller, uint256 amount);\r\n    event FundsDeposited(uint256 amount);\r\n    event FundsClaimed();\r\n    event DeadlineExtended(uint256 newDeadline);\r\n    event DisputeInitiated(string reason);\r\n\tevent DisputeResolved(bool success);\r\n    event EscrowCancelled();\r\n\tevent EscrowCompleted();\r\n\r\n    modifier onlyBuyer() {\r\n        require(msg.sender == buyer, \"Only buyer can perform this action\");\r\n        _;\r\n    }\r\n\r\n    modifier onlySeller() {\r\n        require(msg.sender == seller, \"Only seller can perform this action\");\r\n        _;\r\n    }\r\n\r\n    modifier onlyOwner() {\r\n        require(msg.sender == owner, \"Only owner can perform this action\");\r\n        _;\r\n    }\r\n\r\n\tmodifier inDispute() {\r\n        require(isDisputed, \"No ongoing dispute\");\r\n        _;\r\n    }\r\n\r\n    modifier notDisputed() {\r\n        require(!isDisputed, \"Action blocked due to ongoing dispute\");\r\n        _;\r\n    }\r\n\r\n\t modifier onlyParticipant() {\r\n        require(msg.sender == buyer || msg.sender == seller, \"Not a participant\");\r\n        _;\r\n    }\r\n\r\n    modifier onlyArbitrator() {\r\n        require(msg.sender == arbitrator, \"Not an arbitrator\");\r\n        _;\r\n    }\r\n\r\n    constructor() {\r\n    }\r\n\r\n\t// Function to initiate a new escrow\r\n    function initiateEscrow(address payable _buyer, address payable _seller, address payable _arbitrator, uint256 _amount) public {\r\n        require(!isActive, \"An escrow is already active\");\r\n        buyer = _buyer;\r\n        seller = _seller;\r\n        arbitrator = _arbitrator;\r\n        amount = _amount;\r\n        isActive = true;\r\n        emit EscrowInitiated(_buyer, _seller, _amount);\r\n    }\r\n\r\n\t// Function to reset the escrow for reuse (to be called after completion)\r\n    function resetEscrow() public {\r\n        require(msg.sender == buyer || msg.sender == seller, \"Only participant can reset\");\r\n        buyer = payable(address(0));\r\n        seller = payable(address(0));\r\n        arbitrator = payable(address(0));\r\n        amount = 0;\r\n        isActive = false;\r\n        emit EscrowCompleted();\r\n    }\r\n\r\n    // Function for buyer to deposit funds\r\n    function depositFunds() public payable onlyBuyer notDisputed {\r\n        require(msg.value == amount, \"Incorrect deposit amount\");\r\n        emit FundsDeposited(msg.value);\r\n    }\r\n\r\n    // Modified claimFunds function with multi-sig and deadline check\r\n    function claimFunds() public onlySeller notDisputed {\r\n        require(!isClaimed, \"Funds already claimed\");\r\n        require(block.timestamp <= deadline, \"Deadline exceeded\");\r\n        require(isApproved(msg.sender), \"Multi-sig approval required\");\r\n\r\n        payable(seller).transfer(amount);\r\n        isClaimed = true;\r\n        emit FundsClaimed();\r\n    }\r\n\r\n    // Multi-sig approval logic\r\n    function isApproved(address _sender) public view returns (bool) {\r\n        uint256 approvedCount = 0;\r\n        for (uint256 i = 0; i < approvers.length; i++) {\r\n            if (approved[approvers[i]]) {\r\n                approvedCount++;\r\n            }\r\n        }\r\n        return approvedCount > approvers.length / 2 && approved[_sender]; // Requires majority approval and sender's approval\r\n    }\r\n\r\n    // Function for extending the deadline\r\n    function extendDeadline(uint256 newDeadline) public onlyOwner {\r\n        require(newDeadline > deadline, \"New deadline must be later than current\");\r\n        deadline = newDeadline;\r\n        emit DeadlineExtended(newDeadline);\r\n    }\r\n\r\n\t// Function to initiate a dispute\r\n    function initiateDispute() public onlyParticipant {\r\n        require(!isClaimed, \"Cannot dispute after funds are claimed\");\r\n        isDisputed = true;\r\n    }\r\n\r\n    // Function for the arbitrator to resolve disputes\r\n    function resolveDispute(bool buyerWins) public onlyArbitrator {\r\n        require(isDisputed, \"No dispute to resolve\");\r\n        if (buyerWins) {\r\n            payable(buyer).transfer(amount);\r\n        } else {\r\n            payable(seller).transfer(amount);\r\n        }\r\n        isClaimed = true;\r\n        isDisputed = false;\r\n        emit DisputeResolved(buyerWins);\r\n    }\r\n\r\n    // Function for cancelling the escrow (e.g., if both parties agree to cancel)\r\n    function cancelEscrow() public onlyOwner notDisputed {\r\n        require(!isClaimed, \"Funds already claimed\");\r\n        if (address(this).balance > 0) {\r\n            // Refund any deposited funds back to the buyer\r\n            buyer.transfer(address(this).balance);\r\n        }\r\n        isClaimed = true; // Prevents further actions on the escrow\r\n        emit EscrowCancelled();\r\n    }\r\n\r\n    // Fallback function to prevent accidental Ether transfer\r\n    fallback() external {\r\n        revert(\"Direct transfer not allowed\");\r\n    }\r\n}\r\n",
  "sourcePath": "C:\\Users\\fredt\\escrow\\contracts\\Escrow.sol",
  "compiler": {
    "name": "solc",
    "version": "0.8.13+commit.abaa5c0e.Emscripten.clang"
  },
  "schemaVersion": "3.4.16",
  "updatedAt": "2024-01-07T08:50:30.595Z",
  "networkType": "ethereum",
  "devdoc": {
    "kind": "dev",
    "methods": {},
    "version": 1
  },
  "userdoc": {
    "kind": "user",
    "methods": {},
    "version": 1
  }
}