{
  "contractName": "Escrow",
  "abi": [
    {
      "inputs": [],
      "stateMutability": "nonpayable",
      "type": "constructor"
    },
    {
      "anonymous": false,
      "inputs": [
        {
          "indexed": false,
          "internalType": "address",
          "name": "approver",
          "type": "address"
        }
      ],
      "name": "ApprovalReceived",
      "type": "event"
    },
    {
      "anonymous": false,
      "inputs": [
        {
          "indexed": false,
          "internalType": "address",
          "name": "approver",
          "type": "address"
        }
      ],
      "name": "ApproverAdded",
      "type": "event"
    },
    {
      "anonymous": false,
      "inputs": [
        {
          "indexed": false,
          "internalType": "address",
          "name": "approver",
          "type": "address"
        }
      ],
      "name": "ApproverRemoved",
      "type": "event"
    },
    {
      "anonymous": false,
      "inputs": [
        {
          "indexed": false,
          "internalType": "uint256",
          "name": "newDeadline",
          "type": "uint256"
        }
      ],
      "name": "DeadlineExtended",
      "type": "event"
    },
    {
      "anonymous": false,
      "inputs": [
        {
          "indexed": false,
          "internalType": "string",
          "name": "reason",
          "type": "string"
        }
      ],
      "name": "DisputeInitiated",
      "type": "event"
    },
    {
      "anonymous": false,
      "inputs": [
        {
          "indexed": false,
          "internalType": "bool",
          "name": "success",
          "type": "bool"
        }
      ],
      "name": "DisputeResolved",
      "type": "event"
    },
    {
      "anonymous": false,
      "inputs": [],
      "name": "EscrowCancelled",
      "type": "event"
    },
    {
      "anonymous": false,
      "inputs": [],
      "name": "EscrowCompleted",
      "type": "event"
    },
    {
      "anonymous": false,
      "inputs": [
        {
          "indexed": false,
          "internalType": "address",
          "name": "buyer",
          "type": "address"
        },
        {
          "indexed": false,
          "internalType": "address",
          "name": "seller",
          "type": "address"
        },
        {
          "indexed": false,
          "internalType": "uint256",
          "name": "amount",
          "type": "uint256"
        }
      ],
      "name": "EscrowInitiated",
      "type": "event"
    },
    {
      "anonymous": false,
      "inputs": [],
      "name": "FundsClaimed",
      "type": "event"
    },
    {
      "anonymous": false,
      "inputs": [
        {
          "indexed": false,
          "internalType": "uint256",
          "name": "amount",
          "type": "uint256"
        }
      ],
      "name": "FundsDeposited",
      "type": "event"
    },
    {
      "stateMutability": "nonpayable",
      "type": "fallback"
    },
    {
      "inputs": [],
      "name": "amount",
      "outputs": [
        {
          "internalType": "uint256",
          "name": "",
          "type": "uint256"
        }
      ],
      "stateMutability": "view",
      "type": "function",
      "constant": true
    },
    {
      "inputs": [],
      "name": "approvalCount",
      "outputs": [
        {
          "internalType": "uint256",
          "name": "",
          "type": "uint256"
        }
      ],
      "stateMutability": "view",
      "type": "function",
      "constant": true
    },
    {
      "inputs": [
        {
          "internalType": "address",
          "name": "",
          "type": "address"
        }
      ],
      "name": "approved",
      "outputs": [
        {
          "internalType": "bool",
          "name": "",
          "type": "bool"
        }
      ],
      "stateMutability": "view",
      "type": "function",
      "constant": true
    },
    {
      "inputs": [
        {
          "internalType": "uint256",
          "name": "",
          "type": "uint256"
        }
      ],
      "name": "approvers",
      "outputs": [
        {
          "internalType": "address",
          "name": "",
          "type": "address"
        }
      ],
      "stateMutability": "view",
      "type": "function",
      "constant": true
    },
    {
      "inputs": [],
      "name": "arbitrator",
      "outputs": [
        {
          "internalType": "address payable",
          "name": "",
          "type": "address"
        }
      ],
      "stateMutability": "view",
      "type": "function",
      "constant": true
    },
    {
      "inputs": [],
      "name": "buyer",
      "outputs": [
        {
          "internalType": "address payable",
          "name": "",
          "type": "address"
        }
      ],
      "stateMutability": "view",
      "type": "function",
      "constant": true
    },
    {
      "inputs": [],
      "name": "deadline",
      "outputs": [
        {
          "internalType": "uint256",
          "name": "",
          "type": "uint256"
        }
      ],
      "stateMutability": "view",
      "type": "function",
      "constant": true
    },
    {
      "inputs": [],
      "name": "isActive",
      "outputs": [
        {
          "internalType": "bool",
          "name": "",
          "type": "bool"
        }
      ],
      "stateMutability": "view",
      "type": "function",
      "constant": true
    },
    {
      "inputs": [],
      "name": "isClaimed",
      "outputs": [
        {
          "internalType": "bool",
          "name": "",
          "type": "bool"
        }
      ],
      "stateMutability": "view",
      "type": "function",
      "constant": true
    },
    {
      "inputs": [],
      "name": "isDisputed",
      "outputs": [
        {
          "internalType": "bool",
          "name": "",
          "type": "bool"
        }
      ],
      "stateMutability": "view",
      "type": "function",
      "constant": true
    },
    {
      "inputs": [],
      "name": "owner",
      "outputs": [
        {
          "internalType": "address",
          "name": "",
          "type": "address"
        }
      ],
      "stateMutability": "view",
      "type": "function",
      "constant": true
    },
    {
      "inputs": [],
      "name": "requiredApprovals",
      "outputs": [
        {
          "internalType": "uint256",
          "name": "",
          "type": "uint256"
        }
      ],
      "stateMutability": "view",
      "type": "function",
      "constant": true
    },
    {
      "inputs": [],
      "name": "seller",
      "outputs": [
        {
          "internalType": "address payable",
          "name": "",
          "type": "address"
        }
      ],
      "stateMutability": "view",
      "type": "function",
      "constant": true
    },
    {
      "inputs": [
        {
          "internalType": "address payable",
          "name": "_buyer",
          "type": "address"
        },
        {
          "internalType": "address payable",
          "name": "_seller",
          "type": "address"
        },
        {
          "internalType": "address payable",
          "name": "_arbitrator",
          "type": "address"
        },
        {
          "internalType": "uint256",
          "name": "_amount",
          "type": "uint256"
        },
        {
          "internalType": "uint256",
          "name": "_deadline",
          "type": "uint256"
        },
        {
          "internalType": "uint256",
          "name": "_requiredApprovals",
          "type": "uint256"
        }
      ],
      "name": "initiateEscrow",
      "outputs": [],
      "stateMutability": "nonpayable",
      "type": "function"
    },
    {
      "inputs": [],
      "name": "resetEscrow",
      "outputs": [],
      "stateMutability": "nonpayable",
      "type": "function"
    },
    {
      "inputs": [],
      "name": "depositFunds",
      "outputs": [],
      "stateMutability": "payable",
      "type": "function",
      "payable": true
    },
    {
      "inputs": [],
      "name": "claimFunds",
      "outputs": [],
      "stateMutability": "nonpayable",
      "type": "function"
    },
    {
      "inputs": [],
      "name": "approve",
      "outputs": [],
      "stateMutability": "nonpayable",
      "type": "function"
    },
    {
      "inputs": [],
      "name": "isApproved",
      "outputs": [
        {
          "internalType": "bool",
          "name": "",
          "type": "bool"
        }
      ],
      "stateMutability": "view",
      "type": "function",
      "constant": true
    },
    {
      "inputs": [
        {
          "internalType": "uint256",
          "name": "newDeadline",
          "type": "uint256"
        }
      ],
      "name": "extendDeadline",
      "outputs": [],
      "stateMutability": "nonpayable",
      "type": "function"
    },
    {
      "inputs": [],
      "name": "initiateDispute",
      "outputs": [],
      "stateMutability": "nonpayable",
      "type": "function"
    },
    {
      "inputs": [
        {
          "internalType": "bool",
          "name": "buyerWins",
          "type": "bool"
        }
      ],
      "name": "resolveDispute",
      "outputs": [],
      "stateMutability": "nonpayable",
      "type": "function"
    },
    {
      "inputs": [],
      "name": "cancelEscrow",
      "outputs": [],
      "stateMutability": "nonpayable",
      "type": "function"
    },
    {
      "inputs": [
        {
          "internalType": "address",
          "name": "approver",
          "type": "address"
        }
      ],
      "name": "addApprover",
      "outputs": [],
      "stateMutability": "nonpayable",
      "type": "function"
    },
    {
      "inputs": [
        {
          "internalType": "address",
          "name": "approver",
          "type": "address"
        }
      ],
      "name": "removeApprover",
      "outputs": [],
      "stateMutability": "nonpayable",
      "type": "function"
    }
  ],
  "bytecode": "0x608060405234801561001057600080fd5b50612ba9806100206000396000f3fe60806040526004361061016a5760003560e01c80636cf4c88f116100d1578063aa8c217c1161008a578063d3650fb811610064578063d3650fb8146104e0578063d45b00071461051d578063d8b964e614610534578063e2c41dbc146105715761016b565b8063aa8c217c14610475578063ac307773146104a0578063b646c194146104b75761016b565b80636cf4c88f1461038b5780637150d8ae146103b457806389e1e82a146103df5780638da5cb5b1461040857806399c1aadc14610433578063a6f529f01461045e5761016b565b806329dcb0cf1161012357806329dcb0cf1461029f578063389b7533146102ca5780634acc296f146102f357806357c9ca141461030a5780636884d0a6146103355780636cc6cde1146103605761016b565b80630335729e146101b357806308551a53146101de57806312424e3f1461020957806322f3e2d41461022057806325648d691461024b57806328f371aa146102745761016b565b5b34801561017757600080fd5b506040517f08c379a00000000000000000000000000000000000000000000000000000000081526004016101aa90611c97565b60405180910390fd5b3480156101bf57600080fd5b506101c861057b565b6040516101d59190611cd2565b60405180910390f35b3480156101ea57600080fd5b506101f361058e565b6040516102009190611d2e565b60405180910390f35b34801561021557600080fd5b5061021e6105b4565b005b34801561022c57600080fd5b506102356107d3565b6040516102429190611cd2565b60405180910390f35b34801561025757600080fd5b50610272600480360381019061026d9190611db0565b6107e6565b005b34801561028057600080fd5b50610289610b40565b6040516102969190611cd2565b60405180910390f35b3480156102ab57600080fd5b506102b4610b4f565b6040516102c19190611e4c565b60405180910390f35b3480156102d657600080fd5b506102f160048036038101906102ec9190611e67565b610b55565b005b3480156102ff57600080fd5b50610308610bda565b005b34801561031657600080fd5b5061031f610d62565b60405161032c9190611cd2565b60405180910390f35b34801561034157600080fd5b5061034a610d75565b6040516103579190611e4c565b60405180910390f35b34801561036c57600080fd5b50610375610d7b565b6040516103829190611d2e565b60405180910390f35b34801561039757600080fd5b506103b260048036038101906103ad9190611ed2565b610da1565b005b3480156103c057600080fd5b506103c9611044565b6040516103d69190611d2e565b60405180910390f35b3480156103eb57600080fd5b5061040660048036038101906104019190611f2b565b611068565b005b34801561041457600080fd5b5061041d6112e3565b60405161042a9190611f67565b60405180910390f35b34801561043f57600080fd5b50610448611309565b6040516104559190611e4c565b60405180910390f35b34801561046a57600080fd5b5061047361130f565b005b34801561048157600080fd5b5061048a6115a4565b6040516104979190611e4c565b60405180910390f35b3480156104ac57600080fd5b506104b56115aa565b005b3480156104c357600080fd5b506104de60048036038101906104d99190611ed2565b61181a565b005b3480156104ec57600080fd5b5061050760048036038101906105029190611e67565b611926565b6040516105149190611f67565b60405180910390f35b34801561052957600080fd5b50610532611965565b005b34801561054057600080fd5b5061055b60048036038101906105569190611ed2565b611abf565b6040516105689190611cd2565b60405180910390f35b610579611adf565b005b600860149054906101000a900460ff1681565b600160009054906101000a900473ffffffffffffffffffffffffffffffffffffffff1681565b60008054906101000a900473ffffffffffffffffffffffffffffffffffffffff1673ffffffffffffffffffffffffffffffffffffffff163373ffffffffffffffffffffffffffffffffffffffff161415801561065e5750600160009054906101000a900473ffffffffffffffffffffffffffffffffffffffff1673ffffffffffffffffffffffffffffffffffffffff163373ffffffffffffffffffffffffffffffffffffffff1614155b61069d576040517f08c379a000000000000000000000000000000000000000000000000000000000815260040161069490611fce565b60405180910390fd5b600760003373ffffffffffffffffffffffffffffffffffffffff1673ffffffffffffffffffffffffffffffffffffffff16815260200190815260200160002060009054906101000a900460ff161561072a576040517f08c379a00000000000000000000000000000000000000000000000000000000081526004016107219061203a565b60405180910390fd5b6001600760003373ffffffffffffffffffffffffffffffffffffffff1673ffffffffffffffffffffffffffffffffffffffff16815260200190815260200160002060006101000a81548160ff0219169083151502179055506009600081548092919061079590612089565b91905055507f135b662e7c460f01a8962dabbc952859694282ca1f1bfbacf24ebecc00160d35336040516107c99190611f67565b60405180910390a1565b600460019054906101000a900460ff1681565b600460019054906101000a900460ff1615610836576040517f08c379a000000000000000000000000000000000000000000000000000000000815260040161082d9061211d565b60405180910390fd5b428211610878576040517f08c379a000000000000000000000000000000000000000000000000000000000815260040161086f90612189565b60405180910390fd5b600073ffffffffffffffffffffffffffffffffffffffff168673ffffffffffffffffffffffffffffffffffffffff16141580156108e25750600073ffffffffffffffffffffffffffffffffffffffff168573ffffffffffffffffffffffffffffffffffffffff1614155b801561091b5750600073ffffffffffffffffffffffffffffffffffffffff168473ffffffffffffffffffffffffffffffffffffffff1614155b61095a576040517f08c379a0000000000000000000000000000000000000000000000000000000008152600401610951906121f5565b60405180910390fd5b8473ffffffffffffffffffffffffffffffffffffffff168673ffffffffffffffffffffffffffffffffffffffff16036109c8576040517f08c379a00000000000000000000000000000000000000000000000000000000081526004016109bf90612287565b60405180910390fd5b60008311610a0b576040517f08c379a0000000000000000000000000000000000000000000000000000000008152600401610a02906122f3565b60405180910390fd5b856000806101000a81548173ffffffffffffffffffffffffffffffffffffffff021916908373ffffffffffffffffffffffffffffffffffffffff16021790555084600160006101000a81548173ffffffffffffffffffffffffffffffffffffffff021916908373ffffffffffffffffffffffffffffffffffffffff16021790555083600260006101000a81548173ffffffffffffffffffffffffffffffffffffffff021916908373ffffffffffffffffffffffffffffffffffffffff16021790555082600381905550816005819055506001600460016101000a81548160ff0219169083151502179055507f63f9a48333323d923317f82cda89a0c64af3bdee4899b2598b36c0c25d5c9d17868685604051610b2993929190612372565b60405180910390a180600a81905550505050505050565b6000600a546009541015905090565b60055481565b6005548111610b99576040517f08c379a0000000000000000000000000000000000000000000000000000000008152600401610b909061241b565b60405180910390fd5b806005819055507fc7f2746aefc0d137a95df385581a90d8b73240b3e6724f8ecb10b58e88f0fb8b81604051610bcf9190611e4c565b60405180910390a150565b60008054906101000a900473ffffffffffffffffffffffffffffffffffffffff1673ffffffffffffffffffffffffffffffffffffffff163373ffffffffffffffffffffffffffffffffffffffff161480610c815750600160009054906101000a900473ffffffffffffffffffffffffffffffffffffffff1673ffffffffffffffffffffffffffffffffffffffff163373ffffffffffffffffffffffffffffffffffffffff16145b610cc0576040517f08c379a0000000000000000000000000000000000000000000000000000000008152600401610cb790612487565b60405180910390fd5b600460009054906101000a900460ff1615610d10576040517f08c379a0000000000000000000000000000000000000000000000000000000008152600401610d0790612519565b60405180910390fd5b6001600860146101000a81548160ff0219169083151502179055507f247aae3599502014da86faa9671cfe009cf4a453eaca352190d2e2af6220b900604051610d5890612585565b60405180910390a1565b600460009054906101000a900460ff1681565b60095481565b600260009054906101000a900473ffffffffffffffffffffffffffffffffffffffff1681565b600073ffffffffffffffffffffffffffffffffffffffff168173ffffffffffffffffffffffffffffffffffffffff1603610e10576040517f08c379a0000000000000000000000000000000000000000000000000000000008152600401610e07906121f5565b60405180910390fd5b60007fffffffffffffffffffffffffffffffffffffffffffffffffffffffffffffffff905060005b600680549050811015610ed1578273ffffffffffffffffffffffffffffffffffffffff1660068281548110610e7057610e6f6125a5565b5b9060005260206000200160009054906101000a900473ffffffffffffffffffffffffffffffffffffffff1673ffffffffffffffffffffffffffffffffffffffff1603610ebe57809150610ed1565b8080610ec990612089565b915050610e38565b506000811215610f16576040517f08c379a0000000000000000000000000000000000000000000000000000000008152600401610f0d90612620565b60405180910390fd5b60066001600680549050610f2a9190612640565b81548110610f3b57610f3a6125a5565b5b9060005260206000200160009054906101000a900473ffffffffffffffffffffffffffffffffffffffff1660068281548110610f7a57610f796125a5565b5b9060005260206000200160006101000a81548173ffffffffffffffffffffffffffffffffffffffff021916908373ffffffffffffffffffffffffffffffffffffffff1602179055506006805480610fd457610fd3612674565b5b6001900381819060005260206000200160006101000a81549073ffffffffffffffffffffffffffffffffffffffff021916905590557fc6e35658c76ecdde40a54f31a91fb7c8615e9893cc0885584b27bb3433270d46826040516110389190611f67565b60405180910390a15050565b60008054906101000a900473ffffffffffffffffffffffffffffffffffffffff1681565b600260009054906101000a900473ffffffffffffffffffffffffffffffffffffffff1673ffffffffffffffffffffffffffffffffffffffff163373ffffffffffffffffffffffffffffffffffffffff16146110f8576040517f08c379a00000000000000000000000000000000000000000000000000000000081526004016110ef906126ef565b60405180910390fd5b600860149054906101000a900460ff16611147576040517f08c379a000000000000000000000000000000000000000000000000000000000815260040161113e9061275b565b60405180910390fd5b600460009054906101000a900460ff1615611197576040517f08c379a000000000000000000000000000000000000000000000000000000000815260040161118e906127c7565b60405180910390fd5b80156112095760008054906101000a900473ffffffffffffffffffffffffffffffffffffffff1673ffffffffffffffffffffffffffffffffffffffff166108fc479081150290604051600060405180830381858888f19350505050158015611203573d6000803e3d6000fd5b50611273565b600160009054906101000a900473ffffffffffffffffffffffffffffffffffffffff1673ffffffffffffffffffffffffffffffffffffffff166108fc479081150290604051600060405180830381858888f19350505050158015611271573d6000803e3d6000fd5b505b6001600460006101000a81548160ff0219169083151502179055506000600860146101000a81548160ff0219169083151502179055507f8015c5005d9ad5d85ca80d3f894f08e0159277704c54166e5cff108800fa80cd816040516112d89190611cd2565b60405180910390a150565b600860009054906101000a900473ffffffffffffffffffffffffffffffffffffffff1681565b600a5481565b60008054906101000a900473ffffffffffffffffffffffffffffffffffffffff1673ffffffffffffffffffffffffffffffffffffffff163373ffffffffffffffffffffffffffffffffffffffff1614806113b65750600160009054906101000a900473ffffffffffffffffffffffffffffffffffffffff1673ffffffffffffffffffffffffffffffffffffffff163373ffffffffffffffffffffffffffffffffffffffff16145b6113f5576040517f08c379a00000000000000000000000000000000000000000000000000000000081526004016113ec90612487565b60405180910390fd5b600460009054906101000a900460ff1680611411575060055442115b611450576040517f08c379a000000000000000000000000000000000000000000000000000000000815260040161144790612859565b60405180910390fd5b60008060006101000a81548173ffffffffffffffffffffffffffffffffffffffff021916908373ffffffffffffffffffffffffffffffffffffffff1602179055506000600160006101000a81548173ffffffffffffffffffffffffffffffffffffffff021916908373ffffffffffffffffffffffffffffffffffffffff1602179055506000600260006101000a81548173ffffffffffffffffffffffffffffffffffffffff021916908373ffffffffffffffffffffffffffffffffffffffff160217905550600060038190555060006005819055506000600460016101000a81548160ff0219169083151502179055506000600860146101000a81548160ff0219169083151502179055506000600460006101000a81548160ff0219169083151502179055507f8726cb855b6e2f06382a782d2b5c208d25a81aa30625c042c9671aa5d0d4db3760405160405180910390a1565b60035481565b600160009054906101000a900473ffffffffffffffffffffffffffffffffffffffff1673ffffffffffffffffffffffffffffffffffffffff163373ffffffffffffffffffffffffffffffffffffffff161461163a576040517f08c379a0000000000000000000000000000000000000000000000000000000008152600401611631906128eb565b60405180910390fd5b600860149054906101000a900460ff161561168a576040517f08c379a00000000000000000000000000000000000000000000000000000000081526004016116819061297d565b60405180910390fd5b600460009054906101000a900460ff16156116da576040517f08c379a00000000000000000000000000000000000000000000000000000000081526004016116d1906127c7565b60405180910390fd5b60055442111561171f576040517f08c379a0000000000000000000000000000000000000000000000000000000008152600401611716906129e9565b60405180910390fd5b611727610b40565b611766576040517f08c379a000000000000000000000000000000000000000000000000000000000815260040161175d90612a55565b60405180910390fd5b600160009054906101000a900473ffffffffffffffffffffffffffffffffffffffff1673ffffffffffffffffffffffffffffffffffffffff166108fc6003549081150290604051600060405180830381858888f193505050501580156117d0573d6000803e3d6000fd5b506001600460006101000a81548160ff0219169083151502179055507f9903f6b78be7ce5ad3daa969da14b8178b87ca380422563a0c2101d351e0005d60405160405180910390a1565b600073ffffffffffffffffffffffffffffffffffffffff168173ffffffffffffffffffffffffffffffffffffffff1603611889576040517f08c379a0000000000000000000000000000000000000000000000000000000008152600401611880906121f5565b60405180910390fd5b6006819080600181540180825580915050600190039060005260206000200160009091909190916101000a81548173ffffffffffffffffffffffffffffffffffffffff021916908373ffffffffffffffffffffffffffffffffffffffff1602179055507f835bddf1ceee4956e4329af9edf018523c1191238187a597453f6020bcadb0428160405161191b9190611f67565b60405180910390a150565b6006818154811061193657600080fd5b906000526020600020016000915054906101000a900473ffffffffffffffffffffffffffffffffffffffff1681565b600860149054906101000a900460ff16156119b5576040517f08c379a00000000000000000000000000000000000000000000000000000000081526004016119ac9061297d565b60405180910390fd5b600460009054906101000a900460ff1615611a05576040517f08c379a00000000000000000000000000000000000000000000000000000000081526004016119fc906127c7565b60405180910390fd5b6000471115611a765760008054906101000a900473ffffffffffffffffffffffffffffffffffffffff1673ffffffffffffffffffffffffffffffffffffffff166108fc479081150290604051600060405180830381858888f19350505050158015611a74573d6000803e3d6000fd5b505b6001600460006101000a81548160ff0219169083151502179055507f6e3be9294e58d10b9c8053cfd5e09871b67e442fe394d6b0870d336b9df984a960405160405180910390a1565b60076020528060005260406000206000915054906101000a900460ff1681565b60008054906101000a900473ffffffffffffffffffffffffffffffffffffffff1673ffffffffffffffffffffffffffffffffffffffff163373ffffffffffffffffffffffffffffffffffffffff1614611b6d576040517f08c379a0000000000000000000000000000000000000000000000000000000008152600401611b6490612ae7565b60405180910390fd5b600860149054906101000a900460ff1615611bbd576040517f08c379a0000000000000000000000000000000000000000000000000000000008152600401611bb49061297d565b60405180910390fd5b6003543414611c01576040517f08c379a0000000000000000000000000000000000000000000000000000000008152600401611bf890612b53565b60405180910390fd5b7f7cb5d45c1071f219bd2da1ea101758715bd52f23f2a707f2d9a0387dea18d90634604051611c309190611e4c565b60405180910390a1565b600082825260208201905092915050565b7f446972656374207472616e73666572206e6f7420616c6c6f7765640000000000600082015250565b6000611c81601b83611c3a565b9150611c8c82611c4b565b602082019050919050565b60006020820190508181036000830152611cb081611c74565b9050919050565b60008115159050919050565b611ccc81611cb7565b82525050565b6000602082019050611ce76000830184611cc3565b92915050565b600073ffffffffffffffffffffffffffffffffffffffff82169050919050565b6000611d1882611ced565b9050919050565b611d2881611d0d565b82525050565b6000602082019050611d436000830184611d1f565b92915050565b600080fd5b611d5781611d0d565b8114611d6257600080fd5b50565b600081359050611d7481611d4e565b92915050565b6000819050919050565b611d8d81611d7a565b8114611d9857600080fd5b50565b600081359050611daa81611d84565b92915050565b60008060008060008060c08789031215611dcd57611dcc611d49565b5b6000611ddb89828a01611d65565b9650506020611dec89828a01611d65565b9550506040611dfd89828a01611d65565b9450506060611e0e89828a01611d9b565b9350506080611e1f89828a01611d9b565b92505060a0611e3089828a01611d9b565b9150509295509295509295565b611e4681611d7a565b82525050565b6000602082019050611e616000830184611e3d565b92915050565b600060208284031215611e7d57611e7c611d49565b5b6000611e8b84828501611d9b565b91505092915050565b6000611e9f82611ced565b9050919050565b611eaf81611e94565b8114611eba57600080fd5b50565b600081359050611ecc81611ea6565b92915050565b600060208284031215611ee857611ee7611d49565b5b6000611ef684828501611ebd565b91505092915050565b611f0881611cb7565b8114611f1357600080fd5b50565b600081359050611f2581611eff565b92915050565b600060208284031215611f4157611f40611d49565b5b6000611f4f84828501611f16565b91505092915050565b611f6181611e94565b82525050565b6000602082019050611f7c6000830184611f58565b92915050565b7f4275796572206f722073656c6c65722063616e6e6f7420617070726f76650000600082015250565b6000611fb8601e83611c3a565b9150611fc382611f82565b602082019050919050565b60006020820190508181036000830152611fe781611fab565b9050919050565b7f416c726561647920617070726f76656400000000000000000000000000000000600082015250565b6000612024601083611c3a565b915061202f82611fee565b602082019050919050565b6000602082019050818103600083015261205381612017565b9050919050565b7f4e487b7100000000000000000000000000000000000000000000000000000000600052601160045260246000fd5b600061209482611d7a565b91507fffffffffffffffffffffffffffffffffffffffffffffffffffffffffffffffff82036120c6576120c561205a565b5b600182019050919050565b7f416e20657363726f7720697320616c7265616479206163746976650000000000600082015250565b6000612107601b83611c3a565b9150612112826120d1565b602082019050919050565b60006020820190508181036000830152612136816120fa565b9050919050565b7f446561646c696e65206d75737420626520696e20746865206675747572650000600082015250565b6000612173601e83611c3a565b915061217e8261213d565b602082019050919050565b600060208201905081810360008301526121a281612166565b9050919050565b7f496e76616c696420616464726573730000000000000000000000000000000000600082015250565b60006121df600f83611c3a565b91506121ea826121a9565b602082019050919050565b6000602082019050818103600083015261220e816121d2565b9050919050565b7f427579657220616e642073656c6c6572206d757374206265206469666665726560008201527f6e74000000000000000000000000000000000000000000000000000000000000602082015250565b6000612271602283611c3a565b915061227c82612215565b604082019050919050565b600060208201905081810360008301526122a081612264565b9050919050565b7f416d6f756e74206d7573742062652067726561746572207468616e2030000000600082015250565b60006122dd601d83611c3a565b91506122e8826122a7565b602082019050919050565b6000602082019050818103600083015261230c816122d0565b9050919050565b6000819050919050565b600061233861233361232e84611ced565b612313565b611ced565b9050919050565b600061234a8261231d565b9050919050565b600061235c8261233f565b9050919050565b61236c81612351565b82525050565b60006060820190506123876000830186612363565b6123946020830185612363565b6123a16040830184611e3d565b949350505050565b7f4e657720646561646c696e65206d757374206265206c61746572207468616e2060008201527f63757272656e7400000000000000000000000000000000000000000000000000602082015250565b6000612405602783611c3a565b9150612410826123a9565b604082019050919050565b60006020820190508181036000830152612434816123f8565b9050919050565b7f4e6f742061207061727469636970616e74000000000000000000000000000000600082015250565b6000612471601183611c3a565b915061247c8261243b565b602082019050919050565b600060208201905081810360008301526124a081612464565b9050919050565b7f43616e6e6f7420646973707574652061667465722066756e647320617265206360008201527f6c61696d65640000000000000000000000000000000000000000000000000000602082015250565b6000612503602683611c3a565b915061250e826124a7565b604082019050919050565b60006020820190508181036000830152612532816124f6565b9050919050565b7f4469737075746520696e69746961746564000000000000000000000000000000600082015250565b600061256f601183611c3a565b915061257a82612539565b602082019050919050565b6000602082019050818103600083015261259e81612562565b9050919050565b7f4e487b7100000000000000000000000000000000000000000000000000000000600052603260045260246000fd5b7f417070726f766572206e6f7420666f756e640000000000000000000000000000600082015250565b600061260a601283611c3a565b9150612615826125d4565b602082019050919050565b60006020820190508181036000830152612639816125fd565b9050919050565b600061264b82611d7a565b915061265683611d7a565b9250828210156126695761266861205a565b5b828203905092915050565b7f4e487b7100000000000000000000000000000000000000000000000000000000600052603160045260246000fd5b7f4e6f7420616e2061726269747261746f72000000000000000000000000000000600082015250565b60006126d9601183611c3a565b91506126e4826126a3565b602082019050919050565b60006020820190508181036000830152612708816126cc565b9050919050565b7f4e6f206f6e676f696e6720646973707574650000000000000000000000000000600082015250565b6000612745601283611c3a565b91506127508261270f565b602082019050919050565b6000602082019050818103600083015261277481612738565b9050919050565b7f46756e647320616c726561647920636c61696d65640000000000000000000000600082015250565b60006127b1601583611c3a565b91506127bc8261277b565b602082019050919050565b600060208201905081810360008301526127e0816127a4565b9050919050565b7f457363726f77206e6f742079657420636c61696d61626c65206f72206578706960008201527f7265640000000000000000000000000000000000000000000000000000000000602082015250565b6000612843602383611c3a565b915061284e826127e7565b604082019050919050565b6000602082019050818103600083015261287281612836565b9050919050565b7f4f6e6c792073656c6c65722063616e20706572666f726d20746869732061637460008201527f696f6e0000000000000000000000000000000000000000000000000000000000602082015250565b60006128d5602383611c3a565b91506128e082612879565b604082019050919050565b60006020820190508181036000830152612904816128c8565b9050919050565b7f416374696f6e20626c6f636b65642064756520746f206f6e676f696e6720646960008201527f7370757465000000000000000000000000000000000000000000000000000000602082015250565b6000612967602583611c3a565b91506129728261290b565b604082019050919050565b600060208201905081810360008301526129968161295a565b9050919050565b7f446561646c696e65206578636565646564000000000000000000000000000000600082015250565b60006129d3601183611c3a565b91506129de8261299d565b602082019050919050565b60006020820190508181036000830152612a02816129c6565b9050919050565b7f4d756c74692d73696720617070726f76616c2072657175697265640000000000600082015250565b6000612a3f601b83611c3a565b9150612a4a82612a09565b602082019050919050565b60006020820190508181036000830152612a6e81612a32565b9050919050565b7f4f6e6c792062757965722063616e20706572666f726d2074686973206163746960008201527f6f6e000000000000000000000000000000000000000000000000000000000000602082015250565b6000612ad1602283611c3a565b9150612adc82612a75565b604082019050919050565b60006020820190508181036000830152612b0081612ac4565b9050919050565b7f496e636f7272656374206465706f73697420616d6f756e740000000000000000600082015250565b6000612b3d601883611c3a565b9150612b4882612b07565b602082019050919050565b60006020820190508181036000830152612b6c81612b30565b905091905056fea26469706673582212208b810d9e3799dec84fef616e7b2b729ed8414a1552703e084148fadb619bbb0164736f6c634300080d0033",
  "immutableReferences": {},
  "source": "// SPDX-License-Identifier: MIT\r\npragma solidity ^0.8.0;\r\n\r\ncontract Escrow {\r\n    // State variables\r\n    address payable public buyer;\r\n    address payable public seller;\r\n    address payable public arbitrator;\r\n    uint256 public amount;\r\n    bool public isClaimed;\r\n    bool public isActive;\r\n    uint256 public deadline; // Deadline for claiming funds\r\n    address[] public approvers; // Addresses required for multi-sig approval\r\n    mapping(address => bool) public approved;\r\n    address public owner; // Contract owner\r\n    bool public isDisputed; // Indicates if there's an ongoing dispute\r\n\tuint256 public approvalCount;\r\n\tuint256 public requiredApprovals;\r\n\r\n    event EscrowInitiated(address buyer, address seller, uint256 amount);\r\n    event FundsDeposited(uint256 amount);\r\n    event FundsClaimed();\r\n    event DeadlineExtended(uint256 newDeadline);\r\n    event DisputeInitiated(string reason);\r\n    event DisputeResolved(bool success);\r\n    event EscrowCancelled();\r\n    event EscrowCompleted();\r\n    event ApproverAdded(address approver);\r\n    event ApproverRemoved(address approver);\r\n\tevent ApprovalReceived(address approver);\r\n\r\n    constructor() {\r\n    }\r\n\r\n    // Function to initiate a new escrow\r\n\tfunction initiateEscrow(address payable _buyer, address payable _seller, address payable _arbitrator, uint256 _amount, uint256 _deadline, uint256 _requiredApprovals) public {\r\n        require(!isActive, \"An escrow is already active\");\r\n        require(_deadline > block.timestamp, \"Deadline must be in the future\");\r\n        require(_buyer != address(0) && _seller != address(0) && _arbitrator != address(0), \"Invalid address\");\r\n        require(_buyer != _seller, \"Buyer and seller must be different\");\r\n        require(_amount > 0, \"Amount must be greater than 0\");\r\n        buyer = _buyer;\r\n        seller = _seller;\r\n        arbitrator = _arbitrator;\r\n        amount = _amount;\r\n        deadline = _deadline;\r\n        isActive = true;\r\n        emit EscrowInitiated(_buyer, _seller, _amount);\r\n\t\trequiredApprovals = _requiredApprovals;\r\n    }\r\n\r\n    // Function to reset the escrow for reuse (to be called after completion)\r\n    function resetEscrow() public onlyParticipant {\r\n        require(isClaimed || block.timestamp > deadline, \"Escrow not yet claimable or expired\");\r\n        buyer = payable(address(0));\r\n        seller = payable(address(0));\r\n        arbitrator = payable(address(0));\r\n        amount = 0;\r\n        deadline = 0;\r\n        isActive = false;\r\n        isDisputed = false;\r\n        isClaimed = false;\r\n        emit EscrowCompleted();\r\n    }\r\n\r\n    // Function for buyer to deposit funds\r\n    function depositFunds() public payable onlyBuyer notDisputed {\r\n        require(msg.value == amount, \"Incorrect deposit amount\");\r\n        emit FundsDeposited(msg.value);\r\n    }\r\n\r\n    // Modified claimFunds function with multi-sig and deadline check\r\n\tfunction claimFunds() public onlySeller notDisputed {\r\n\t\trequire(!isClaimed, \"Funds already claimed\");\r\n\t\trequire(block.timestamp <= deadline, \"Deadline exceeded\");\r\n\t\trequire(isApproved(), \"Multi-sig approval required\");\r\n\t\tpayable(seller).transfer(amount);\r\n\t\tisClaimed = true;\r\n\t\temit FundsClaimed();\r\n\t}\r\n\r\n    // Multi-sig approval logic\r\n\tfunction approve() public {\r\n\t\trequire(msg.sender != buyer && msg.sender != seller, \"Buyer or seller cannot approve\");\r\n\t\trequire(!approved[msg.sender], \"Already approved\");\r\n\t\tapproved[msg.sender] = true;\r\n\t\tapprovalCount++;\r\n\t\temit ApprovalReceived(msg.sender);\r\n\t}\r\n\r\n\r\n\tfunction isApproved() public view returns (bool) {\r\n\t\treturn approvalCount >= requiredApprovals;\r\n\t}\r\n\r\n    // Function for extending the deadline\r\n    function extendDeadline(uint256 newDeadline) public {\r\n        require(newDeadline > deadline, \"New deadline must be later than current\");\r\n        deadline = newDeadline;\r\n        emit DeadlineExtended(newDeadline);\r\n    }\r\n\r\n    // Function to initiate a dispute\r\n    function initiateDispute() public onlyParticipant {\r\n        require(!isClaimed, \"Cannot dispute after funds are claimed\");\r\n        isDisputed = true;\r\n        emit DisputeInitiated(\"Dispute initiated\");\r\n    }\r\n\r\n    // Function for the arbitrator to resolve disputes\r\n    function resolveDispute(bool buyerWins) public onlyArbitrator inDispute {\r\n        require(!isClaimed, \"Funds already claimed\");\r\n        if (buyerWins) {\r\n            payable(buyer).transfer(address(this).balance);\r\n        } else {\r\n            payable(seller).transfer(address(this).balance);\r\n        }\r\n        isClaimed = true;\r\n        isDisputed = false;\r\n        emit DisputeResolved(buyerWins);\r\n    }\r\n\r\n    // Function for cancelling the escrow (e.g., if both parties agree to cancel)\r\n    function cancelEscrow() public notDisputed {\r\n        require(!isClaimed, \"Funds already claimed\");\r\n        if (address(this).balance > 0) {\r\n            // Refund any deposited funds back to the buyer\r\n            buyer.transfer(address(this).balance);\r\n        }\r\n        isClaimed = true; // Prevents further actions on the escrow\r\n        emit EscrowCancelled();\r\n    }\r\n\r\n    // Fallback function to prevent accidental Ether transfer\r\n    fallback() external {\r\n        revert(\"Direct transfer not allowed\");\r\n    }\r\n\r\n    // Modifiers\r\n    modifier onlyBuyer() {\r\n        require(msg.sender == buyer, \"Only buyer can perform this action\");\r\n        _;\r\n    }\r\n    \r\n\tmodifier onlySeller() {\r\n\t\trequire(msg.sender == seller, \"Only seller can perform this action\");\r\n\t\t_;\r\n\t}\r\n\r\n\tmodifier onlyArbitrator() {\r\n\t\trequire(msg.sender == arbitrator, \"Not an arbitrator\");\r\n\t\t_;\r\n\t}\r\n\r\n\tmodifier onlyParticipant() {\r\n\t\trequire(msg.sender == buyer || msg.sender == seller, \"Not a participant\");\r\n\t\t_;\r\n\t}\r\n\r\n\tmodifier inDispute() {\r\n\t\trequire(isDisputed, \"No ongoing dispute\");\r\n\t\t_;\r\n\t}\r\n\r\n\tmodifier notDisputed() {\r\n\t\trequire(!isDisputed, \"Action blocked due to ongoing dispute\");\r\n\t\t_;\r\n\t}\r\n\r\n    // Approver management\r\n    function addApprover(address approver) public {\r\n        require(approver != address(0), \"Invalid address\");\r\n        approvers.push(approver);\r\n        emit ApproverAdded(approver);\r\n    }\r\n\r\n    function removeApprover(address approver) public {\r\n\t\trequire(approver != address(0), \"Invalid address\");\r\n\r\n\t\t// Find the index of the approver to remove\r\n\t\tint256 approverIndex = -1;\r\n\t\tfor (uint256 i = 0; i < approvers.length; i++) {\r\n\t\t\tif (approvers[i] == approver) {\r\n\t\t\t\tapproverIndex = int256(i);\r\n\t\t\t\tbreak;\r\n\t\t\t}\r\n\t\t}\r\n\r\n\t\trequire(approverIndex >= 0, \"Approver not found\");\r\n\r\n\t\t\t// Remove the approver by shifting the last element of the array into its place\r\n\t\t\tapprovers[uint256(approverIndex)] = approvers[approvers.length - 1];\r\n\t\t\tapprovers.pop(); // Remove the last element\r\n\r\n\t\t\temit ApproverRemoved(approver);\r\n\t}\r\n\r\n}\r\n",
  "sourcePath": "C:\\Users\\fredt\\escrow\\contracts\\Escrow.sol",
  "compiler": {
    "name": "solc",
    "version": "0.8.13+commit.abaa5c0e.Emscripten.clang"
  },
  "schemaVersion": "3.4.16",
  "updatedAt": "2024-01-08T07:46:01.090Z",
  "networkType": "ethereum",
  "devdoc": {
    "kind": "dev",
    "methods": {},
    "version": 1
  },
  "userdoc": {
    "kind": "user",
    "methods": {},
    "version": 1
  }
}